:020000040800F2
:10000000700602207D0200088502000887020008B1
:10001000890200088B0200088D0200080000000021
:100020000000000000000000000000008F02000837
:1000300091020008000000009302000895020008E9
:10004000970200089702000897020008970200082C
:10005000970200089702000897020008970200081C
:10006000970200089702000897020008970200080C
:1000700097020008970200089702000897020008FC
:1000800097020008970200089702000897020008EC
:1000900097020008970200089702000897020008DC
:1000A00097020008970200089702000897020008CC
:1000B00097020008970200089702000897020008BC
:1000C00097020008970200089702000897020008AC
:1000D000970200089702000897020008970200089C
:1000E000970200089702000897020008970200088C
:1000F000970200089702000897020008970200087C
:10010000970200089702000897020008970200086B
:10011000970200089702000897020008970200085B
:10012000970200089702000897020008970200084B
:10013000970200089702000897020008970200083B
:10014000970200089702000897020008970200082B
:10015000970200089702000897020008970200081B
:10016000970200089702000897020008970200080B
:10017000970200089702000897020008000000009C
:1001800097020008970200089702000897020008EB
:1001900097020008970200089702000897020008DB
:1001A00097020008970200089702000897020008CB
:1001B00097020008970200089702000897020008BB
:1001C000970200089702000800000000970200084C
:1001D000970200089702000897020008970200089B
:1001E000970200089702000897020008970200088B
:1001F000970200089702000800F002F800F02EF8BD
:100200000AA090E8000C82448344AAF10107DA4571
:1002100001D100F023F8AFF2090EBAE80F0013F095
:10022000010F18BFFB1A43F00103184774020000C6
:10023000840200000023002400250026103A28BF75
:1002400078C1FBD8520728BF30C148BF0B60704748
:100250001FB500F017F91FBD10B510BD00F031F843
:100260001146FFF7F5FF00F0B7F800F04FF803B4C0
:10027000FFF7F2FF03BC00F057F800000948804781
:1002800009480047FEE7FEE7FEE7FEE7FEE7FEE778
:10029000FEE7FEE7FEE7FEE704480549054A064B90
:1002A0007047000039030008F901000870000220BF
:1002B0007006022070020220700202207047704710
:1002C0007047754600F02CF8AE4605006946534667
:1002D00020F00700854618B020B5FFF7DDFFBDE828
:1002E00020404FF000064FF000074FF000084FF09D
:1002F000000BAC46ACE8C009ACE8C009ACE8C009EA
:10030000ACE8C00921F007018D46704710B50446DE
:10031000AFF300802046BDE81040FFF7A8BF000003
:10032000004870470000022001491820ABBEFEE7DC
:1003300026000200704700000248016841F4700185
:100340000160704788ED00E00E48114BD0F80014B2
:10035000C0F800140C490A6842F000620A600B49B8
:100360000A6842F4AA120A6002681A430260D1F8CD
:100370000004C1F800040748016841F02051016001
:10038000704700BF000402400C0802400010024009
:10039000004000100C140240411E3648416000210C
:1003A00081600168C903FCD5704700BF10B50446E1
:1003B0002CB14FF47A50FFF7EFFF013CF8E710BD86
:1003C00004484FF6FF7201689143016041F28830A2
:1003D000FFF7ECBF141002402548016841F0FF010F
:1003E0000160FFF7B1FF23486FF07F41224C234D9E
:1003F000234E4FF6FF77416005210160286800F425
:1004000000503060286800F480407060D4F8FC032D
:1004100000F40050B0602068B8432060D4F8000CAD
:100420006FF30F00C4F8000CB068B0F5005F02D1A4
:10043000FFF7C6FFE2E7D6E90001B1F5804F0AD128
:10044000B0F5005F07D0D4F8000C40F4C070C4F8D9
:10045000000CD6E90001B1F5804FCFD0B0F5005FB8
:10046000CCD1D4F8000C40F4C060C4F8000CC5E74F
:100470003038024010E000E0140402401014024042
:1004800060000220F1EE100A4FF6FF71C0F2C03199
:1004900020EA010040F04070E1EE100A70470000D1
:1004A000B0040008000002207006000034020008BA
:040000050800027D70
:00000001FF
