:020000040800F2
:10000000880702208D020008950200089702000868
:10001000990200089B0200089D02000800000000F1
:100020000000000000000000000000009F02000827
:10003000A102000800000000A3020008A5020008B9
:10004000A7020008A7020008A7020008A7020008EC
:10005000A7020008A7020008A7020008A7020008DC
:10006000A7020008A7020008A7020008A7020008CC
:10007000A7020008A7020008A7020008A7020008BC
:10008000A7020008A7020008A7020008A7020008AC
:10009000A7020008A7020008A7020008A70200089C
:1000A000A7020008A7020008A7020008A70200088C
:1000B000A7020008A7020008A7020008A70200087C
:1000C000A7020008A7020008A7020008A70200086C
:1000D000A7020008A7020008A70200089D06000862
:1000E000A7020008A7020008A7020008A70200084C
:1000F000A7020008A7020008A7020008A70200083C
:10010000A7020008A702000881060008A70200084D
:10011000A7020008A7020008A7020008A70200081B
:10012000A7020008A7020008A7020008A70200080B
:10013000A7020008A7020008A7020008A7020008FB
:10014000A7020008A7020008A7020008A7020008EB
:10015000A7020008A7020008A7020008A7020008DB
:10016000A7020008A7020008A7020008A7020008CB
:10017000A7020008A7020008A7020008000000006C
:10018000A7020008A7020008A7020008A7020008AB
:10019000A7020008A7020008A7020008A70200089B
:1001A000A7020008A7020008A7020008A70200088B
:1001B000A7020008A7020008A7020008A70200087B
:1001C000A7020008A702000800000000A70200081C
:1001D000A7020008A7020008A7020008A70200085B
:1001E000A7020008A7020008A7020008A70200084B
:1001F000A7020008A702000800F002F800F037F894
:100200000AA090E8000C82448344AAF10107DA4571
:1002100001D100F02CF8AFF2090EBAE80F0013F08C
:10022000010F18BFFB1A43F0010318477C130000AD
:100230008C1300000023002400250026103A28BF5C
:1002400078C1FBD8520728BF30C148BF0B60704748
:100250001FB501F0DBF89DE8030000F0F9F800F0AD
:1002600049F81FBD10B5002000F028F910BD00F0BE
:1002700067F91146FFF7ECFF01F05CF800F09FF919
:1002800003B4FFF7EFFF03BC00F046F809488047CE
:1002900009480047FEE7FEE7FEE7FEE7FEE7FEE768
:1002A000FEE7FEE7FEE7FEE704480549054A064B80
:1002B0007047000071060008F9010008880102205B
:1002C00088070220880302208803022010B500203E
:1002D00000F095F8FFF7C6FFBDE81040012000F0E0
:1002E0001BB80B460146184600F072B870477047BD
:1002F0007047000070B5064C7C44064D7D4404E018
:100300002046016808448047241DAC42F8D170BDE6
:10031000BC120000BC12000001491820ABBEFEE771
:100320002600020070B5064600F072F8056806F176
:100330000B0020F00704B4429CBF002070BD2B4688
:100340006A68BAB11068A04210D304F1080188426B
:100350003CBF5068586007D351681019416011685C
:10036000091B016058601460101D70BD134652686F
:10037000002AE7D12146284600F056F80028DED1B1
:1003800070BD70B50446051F00F042F80068002CEF
:1003900014BF446870BD002C18BFAC423CBF20465F
:1003A0006468F8D301680A18AA4218BF456003D1EF
:1003B0002A6805461144016028684119A1421CBF02
:1003C0006C6070BD6168696021680844286070BD18
:1003D0002DE9F041074615460E461020FFF7A2FF13
:1003E00004000AD06760C4E9026500F015F80168EE
:1003F000216004600020BDE8F0810120FBE710B51A
:1004000000F082F8BDE8104000F079B870470000B5
:10041000004870470800022000487047380002205A
:10042000704770477047704738B504460A46002049
:100430006946AFF30080002808BF38BD0246009926
:10044000204600F0A2F8012038BD012000F0D9B804
:10045000F8B5AFF30080054600200C46102000BF21
:100460000646A819A0420DD9324669460020AFF3CE
:100470000080070008BF00F0C4F80098A04218BF31
:100480000546C419FFF7C4FF05600746F01D20F0BC
:1004900007004619284600F00AF8B44208BFF8BD24
:1004A000A21B31463868BDE8F84000F06EB8002164
:1004B0000160C0E901107047102070472DE9F0413C
:1004C0000646FFF7A9FF8046454613E016B1E068EF
:1004D000B0420ED120682860D4E90101D8F800703C
:1004E00088472046FFF74DFFD8F80000B842EBD10F
:1004F00000E025462C68002CE8D1BDE8F0810028FA
:1005000001D0FFF709BF704710B5002102A000F02D
:100510005FF8012010BD0000534947414252543A50
:100520002041626E6F726D616C207465726D696ED0
:100530006174696F6E00000000487047000002207F
:100540007546FFF7F9FFAE4605006946534620F0B1
:100550000700854618B020B5FFF7A6FEBDE820408D
:100560004FF000064FF000074FF000084FF0000B6F
:10057000AC46ACE8C009ACE8C009ACE8C009ACE8DE
:10058000C00921F007018D467047034640688C463C
:10059000002818BF88423CBF03464068F8D318685B
:1005A0001844884207D00CF1030020F00700001D1A
:1005B000411A521A0146081D0A60FFF7E2BE10B543
:1005C0000446AFF300802046BDE81040FFF758BE58
:1005D00070B505460C460A2000E06D1C00F018F8C6
:1005E00035B128780028F8D102E0641C00F010F83A
:1005F00014B120780028F8D1BDE870400A2000F03E
:1006000007B810B500F00CF8BDE81040FFF777BF51
:1006100008B569468DF800000320ABBE08BD000098
:1006200010B5012805D0002103A0FFF7D1FF01205C
:1006300010BD09A1F8E7000053494752544D454DFC
:100640003A204F7574206F662068656170206D6573
:100650006D6F7279000000003A2048656170206D6E
:10066000656D6F727920636F727275707465640066
:100670000248016841F470010160704788ED00E0B4
:100680000548016821F0010101609E48016881F080
:1006900001010160704700BF100C00402DE9F84FC8
:1006A00098482C4D224E234F00240DF103084FF69D
:1006B000FF7A834605F110093068800636D5B168A7
:1006C000E868CAB26E2A15D13C54EC603878797863
:1006D0008DF803105528EFD0422811D04428EBD0D4
:1006E000412815D14846414600F054FD006800F00D
:1006F000D3F8E1E7FE28DFDC39540130E860DBE7BE
:100700004846414600F046FD006800F09FF8D3E7F8
:10071000DBF8000C594620EA0A00CBF8000CDBF8A5
:1007200000006FF30F00CBF80000C5E7BDE8F88FBD
:100730001C48004088000220064900204FF07E52ED
:1007400041F8100FC1E90100C1E903020248034A60
:10075000FFF7C7BD600002202B1000080000000852
:1007600010B51848184A1B4CD0F80018C0F80018EB
:1007700016498B5843F000638B50154A136843F4B5
:10078000AA131360D0F800342343C0F80034D2F821
:100790000034C2F80034104A136843F02053136049
:1007A0000A6842F420220A604A6A42F077024A62EA
:1007B000016842F2222241F0AA010160016A11435C
:1007C000016210BD000002400CFCFFFF000C024063
:1007D00000100240004000100C14024011480F218C
:1007E00046F26002816244F61F61C162C16841F055
:1007F0000101C160416941F0010141618169114319
:100800008161C1691143C16141F21112016A114351
:100810000162016841F0010101600B484FF4802141
:1008200001607047000C0040064840F28362C168D6
:100830001143C160016841F02D010160024880212F
:10084000016070470048004004E100E02D494FF688
:10085000FF73D1F8002C9A43C1F8002C0A686FF39B
:100860000F020A60D1F8002C42F4C062C1F8002CDB
:100870000A6842F480420A6014490860704700BF69
:10088000411E04484160002181600168C903FCD514
:10089000704700BF10E000E01A494FF6FF730A6886
:1008A0009A430A60D1F8002C6FF30F02C1F8002CB4
:1008B000D1F8002C42F4C072C1F8002C0A6842F052
:1008C00080020A6001490860704700BF340C004094
:1008D00010B504462CB14FF47A50FFF7D1FF013C1C
:1008E000F8E710BD07484FF6FF72D0F8001C91439F
:1008F000C0F8001C01686FF30F01016042F2107034
:10090000FFF7E6BF1404024010B5084620B10468A2
:1009100000F0F9FC2046F9E710BD70B50446012946
:1009200001D1022507E0481E0D46014203D02846AA
:1009300000F0D6F805466668B54236D83BD294ED4D
:10094000030A94ED041A032EB8EE400A80EE010A61
:10095000BEFE400A10EE100A20D34FF055314FF082
:10096000333201EA5601711A02EA910221F0CC31C8
:1009700011444FF0013201EB111121F0F0315143DC
:10098000090E01290AD8411E01220228B1FA81F17B
:10099000C1F1200128BF02FA01F001E000F0A0F847
:1009A000854238BF0546B54205D220462946BDE8F6
:1009B000704000F001B870BD2DE9F8430446E9B37A
:1009C0000D46B1F1804F7BD2A80000F09FFC01469C
:1009D0002068216008B100F096FC002000216560CD
:1009E0008D4204D0226842F821000131F8E7234605
:1009F00053F8089FB9F1000F27D04FF055314FF051
:100A00003332D9F8048001EA5501691A02EA9102E9
:100A100021F0CC3111444FF0013201EB111121F0E2
:100A2000F03151434FEA116EBEF1010F0FD9A845C5
:100A300010D3B8FBF5F101FB15880BE02068002509
:100A4000256008B100F05FFC6560BDE8F883691EB1
:100A500008EA01082168A5F1010C41F82830D9F80D
:100A60000060002EF1D07768BEF1010F06D9AF42C9
:100A700006D3B7FBF5F101FB157701E007EA0C0798
:100A800047451BD0216851F82730002B334612D040
:100A900019461B681BB11A7A307A9042F8D0C9F80F
:100AA0000030206850F8270000680860206850F87F
:100AB00027000660D3E741F82790B846B146CEE755
:100AC000FFF704FC10B581680446FFF71DFF20689E
:100AD0000021216008B100F016FC204610BD000086
:100AE0002DE9F041D32816D841F228413022C0F632
:100AF000000100BF530801EB830757F8046B6FEA4E
:100B0000520586423CBF53193946002B1A46F1D193
:100B10000868BDE8F08110F1040F80F084824CF287
:100B20009D024108C9F60942A1FB02124FEA921840
:100B3000D22141F2E84C08FB1100C0F6000C08FB82
:100B400001F33025624600BF690802EB810757F8C0
:100B5000046B6FEA550486423CBF29193A460029C6
:100B60000D46F1D1A2EB0C0041F228428410C0F6F0
:100B700000024FF0D20E5CF8241005250B4400BF94
:100B800052F82510B3FBF1F707FB01F6B3424FF023
:100B9000000608BF07268F423CBF012618461EB933
:100BA00001352F2DECD106E0072E00F02D82042E0A
:100BB00018BFBDE8F081D325B3FBF5F1A942C0F021
:100BC0002F8269438B4200F01F8205F10A06B3FBB6
:100BD000F6F1B142C0F0248271438B4200F01482DE
:100BE00005F10C07B3FBF7F10236B142C0F01882F1
:100BF00079438B4200F0088205F11007B3FBF7F14F
:100C00000436B142C0F00C8279438B4200F0FC8183
:100C100005F11207B3FBF7F10236B142C0F00082D2
:100C200079438B4200F0F08105F11607B3FBF7F131
:100C30000436B142C0F0F48179438B4200F0E48184
:100C400005F11C07B3FBF7F10636B142C0F0E881AD
:100C500079438B4200F0D88105F11E07B3FBF7F111
:100C60000236B142C0F0DC8179438B4200F0CC8186
:100C700005F12407B3FBF7F10636B142C0F0D0818D
:100C800079438B4200F0C08105F12807B3FBF7F1EF
:100C90000436B142C0F0C48179438B4200F0B48184
:100CA00005F12A07B3FBF7F10236B142C0F0B88173
:100CB00079438B4200F0A88105F12E07B3FBF7F1D1
:100CC0000436B142C0F0AC8179438B4200F09C8184
:100CD00005F13407B3FBF7F10636B142C0F0A0814D
:100CE00079438B4200F0908105F13A07B3FBF7F1AD
:100CF0000636B142C0F0948179438B4200F0848182
:100D000005F13C07B3FBF7F10236B142C0F0888130
:100D100079438B4200F0788105F14207B3FBF7F18C
:100D20000636B142C0F07C8179438B4200F06C8181
:100D300005F14607B3FBF7F10436B142C0F070810C
:100D400079438B4200F0608105F14807B3FBF7F16E
:100D50000236B142C0F0648179438B4200F0548185
:100D600005F14E07B3FBF7F10636B142C0F05881EA
:100D700079438B4200F0488105F15207B3FBF7F14C
:100D80000436B142C0F04C8179438B4200F03C8183
:100D900005F15807B3FBF7F10636B142C0F04081C8
:100DA00079438B4200F0308105F16007B3FBF7F126
:100DB0000836B142C0F0348179438B4200F024817F
:100DC00005F16407B3FBF7F10436B142C0F02881A6
:100DD00079438B4200F0188105F16607B3FBF7F108
:100DE0000236B142C0F01C8179438B4200F00C8185
:100DF00005F16A07B3FBF7F10436B142C0F0108188
:100E000079438B4200F0008105F16C07B3FBF7F1E9
:100E10000236B142C0F0048179438B4200F0F48085
:100E200005F17007B3FBF7F10436B142C0F0F8806A
:100E300079438B4200F0E88005F17807B3FBF7F1C6
:100E40000836B142C0F0EC8079438B4200F0DC8080
:100E500005F17E07B3FBF7F10636B142C0F0E08042
:100E600079438B4200F0D08005F18207B3FBF7F1A4
:100E70000436B142C0F0D48079438B4200F0C48084
:100E800005F18807B3FBF7F10636B142C0F0C88020
:100E900079438B4200F0B88005F18A07B3FBF7F184
:100EA0000236B142C0F0BC8079438B4200F0AC8086
:100EB00005F18E07B3FBF7F10436B142C0F0B08004
:100EC00079438B4200F0A08005F19407B3FBF7F162
:100ED0000636B142C0F0A48079438B4200F0948082
:100EE00005F19607B3FBF7F10236B142C0F09880E6
:100EF00079438B4200F0888005F19C07B3FBF7F142
:100F00000636B142C0F08C8079438B427CD005F12B
:100F1000A207B3FBF7F10636B142C0F081807943F6
:100F20008B4271D005F1A607B3FBF7F10436B1424D
:100F300076D379438B4267D005F1A807B3FBF7F16D
:100F40000236B1426CD379438B425DD005F1AC07D8
:100F5000B3FBF7F10436B14262D379438B4253D0ED
:100F600005F1B207B3FBF7F10636B14258D3794326
:100F70008B4249D005F1B407B3FBF7F10236B14219
:100F80004ED379438B423FD005F1BA07B3FBF7F15B
:100F90000636B14244D379438B4235D005F1BE07C2
:100FA000B3FBF7F10436B1423AD379438B422BD0ED
:100FB00005F1C007B3FBF7F10236B14230D37943F4
:100FC0008B4221D005F1C407B3FBF7F10436B142DF
:100FD00026D379438B4217D005F1C607B3FBF7F14F
:100FE0000236B1421CD379438B420DD005F1D007B4
:100FF000B3FBF7F106F10A05A94211D379438B42FD
:1010000005F102057FF4D8AD611C302908BF08F155
:101010000108B1F1300418BF0C4608FB0EF3AAE535
:101020001846BDE8F081FFF751F9FFF74BBD2DE9F8
:10103000F04146680F788046EEB14FF055304FF0E2
:10104000333100EA5600301A01EA900120F0CC302A
:1010500008444FF0013100EB101020F0F03048430D
:10106000000E012808D9BE423C4608D8B7FBF6F16D
:1010700001FB167403E01DE0711E01EA0704D8F8B5
:10108000001051F82450ADB1711E2D6895B16A68F9
:10109000BA420BD0012806D9B24205D3B2FBF6F30F
:1010A00003FB162200E00A40A24203D12A7ABA4288
:1010B000EBD16BE0102000F029F900EE106A054634
:1010C0000020E8602F72C5E90007B8EE402AD8F882
:1010D0000C1098ED040A01F1010101EE101AB8EEAE
:1010E000411A36B120EE022AB4EE412AF1EE10FA8E
:1010F00025DA81EE000A032EA6F1010138BF012096
:10110000314018BF01210843BEFE400A40EA4601B3
:1011100010EE100A814238BF01464046FFF7FDFB42
:10112000D8F80460701E064207D0BE429ABFB7FBD3
:10113000F6F000FB16743C4601E000EA0704D8F81C
:10114000001051F8240010B10168296018E04046F1
:1011500050F8082F2A60056041F82400286880B103
:10116000711E40680E4206D0B04205D3B0FBF6F1C6
:1011700001FB160000E00840D8F8001001EB8000E9
:101180000560D8F80C000130C8F80C0005F10C001F
:10119000BDE8F0812DE9F04146680F788046EEB158
:1011A0004FF055304FF0333100EA5600301A01EA63
:1011B000900120F0CC3008444FF0013100EB1010CA
:1011C00020F0F0304843000E012808D9BE423C46CA
:1011D00008D8B7FBF6F101FB167403E01DE0711EA1
:1011E00001EA0704D8F8001051F82450ADB1711E7F
:1011F0002D6895B16A68BA420BD0012806D9B2426F
:1012000005D3B2FBF6F303FB162200E00A40A2422C
:1012100003D12A7ABA42EBD16BE0102000F076F8C5
:1012200000EE106A05460020E8602F72C5E900074D
:10123000B8EE402AD8F80C1098ED040A01F101012B
:1012400001EE101AB8EE411A36B120EE022AB4EEC1
:10125000412AF1EE10FA25DA81EE000A032EA6F1FA
:10126000010138BF0120314018BF01210843BEFEF3
:10127000400A40EA460110EE100A814238BF01469A
:101280004046FFF74AFBD8F80460701E064207D0BC
:10129000BE429ABFB7FBF6F000FB16743C4601E075
:1012A00000EA0704D8F8001051F8240010B10168D2
:1012B000296018E0404650F8082F2A60056041F880
:1012C0002400286880B1711E40680E4206D0B042EA
:1012D00005D3B0FBF6F101FB160000E00840D8F89A
:1012E000001001EB80000560D8F80C000130C8F850
:1012F0000C0005F10C00BDE8F08140F28400C2F260
:10130000020000687047FFF73CB8000010B50446C3
:10131000002808BF012400BF2046FFF703F800287B
:1013200018BF10BDFFF7E9FF08B18047F4E70020C0
:1013300010BD000082B02E482E4A016841F0FF0126
:101340000160016911430161FFF70AFA2A486FF051
:101350007F41416005210160FFF766FAFFF73EFA21
:10136000264D4C208DF807000DF10701244E05F1A4
:1013700010042046B04741F2883101604D208DF8BD
:1013800006000DF106012046B04742F6E06101601B
:1013900048208DF805000DF105012046B047194C95
:1013A000194E44F620610160206800F40050286066
:1013B000216801F480416960A25912F40052AA60C8
:1013C00012D130B929B14FF47A70FFF765FAD5E937
:1013D0000001B1F5804FE7D0B0F5005FE4D14FF4E4
:1013E0007A70FFF733FADFE7FFF77CFADCE700BF3C
:1013F000303802400800040010E000E060000220E5
:101400002F1000081014024000F4FFFFF1EE100A44
:101410004FF6FF71C0F2C03120EA010040F0407089
:10142000E1EE100A7047000000000000020000001A
:101430000300000005000000070000000B00000092
:101440000D00000011000000130000001700000054
:101450001D0000001F000000250000002900000002
:101460002B0000002F000000350000003B000000B2
:101470003D0000004300000047000000490000005C
:101480004F00000053000000590000006100000000
:1014900065000000670000006B0000006D000000A8
:1014A000710000007F000000830000008900000040
:1014B0008B00000095000000970000009D000000D8
:1014C000A3000000A7000000AD000000B300000072
:1014D000B5000000BF000000C1000000C500000012
:1014E000C7000000D3000000010000000B00000056
:1014F0000D000000110000001300000017000000A4
:101500001D0000001F000000250000002900000051
:101510002B0000002F000000350000003B00000001
:101520003D000000430000004700000049000000AB
:101530004F0000005300000059000000610000004F
:1015400065000000670000006B0000006D000000F7
:1015500071000000790000007F000000830000009F
:10156000890000008B0000008F0000009500000043
:10157000970000009D000000A3000000A7000000ED
:10158000A9000000AD000000B3000000B50000009D
:10159000BB000000BF000000C1000000C50000004B
:1015A000C7000000D1000000BC15000800000220A8
:0C15B000880700003402000881F1FFFFF2
:040000050800028D60
:00000001FF
