:020000040800F2
:10000000700602207D0200088502000887020008B1
:10001000890200088B0200088D0200080000000021
:100020000000000000000000000000008F02000837
:1000300091020008000000009302000895020008E9
:10004000970200089702000897020008970200082C
:10005000970200089702000897020008970200081C
:10006000970200089702000897020008970200080C
:1000700097020008970200089702000897020008FC
:1000800097020008970200089702000897020008EC
:1000900097020008970200089702000897020008DC
:1000A00097020008970200089702000897020008CC
:1000B00097020008970200089702000897020008BC
:1000C00097020008970200089702000897020008AC
:1000D00097020008970200089702000865030008CD
:1000E000970200089702000897020008970200088C
:1000F000970200089702000897020008970200087C
:1001000097020008970200084903000897020008B8
:10011000970200089702000897020008970200085B
:10012000970200089702000897020008970200084B
:10013000970200089702000897020008970200083B
:10014000970200089702000897020008970200082B
:10015000970200089702000897020008970200081B
:10016000970200089702000897020008970200080B
:10017000970200089702000897020008000000009C
:1001800097020008970200089702000897020008EB
:1001900097020008970200089702000897020008DB
:1001A00097020008970200089702000897020008CB
:1001B00097020008970200089702000897020008BB
:1001C000970200089702000800000000970200084C
:1001D000970200089702000897020008970200089B
:1001E000970200089702000897020008970200088B
:1001F000970200089702000800F002F800F02EF8BD
:100200000AA090E8000C82448344AAF10107DA4571
:1002100001D100F023F8AFF2090EBAE80F0013F095
:10022000010F18BFFB1A43F001031847F803000041
:10023000080400000023002400250026103A28BFEF
:1002400078C1FBD8520728BF30C148BF0B60704748
:100250001FB500F0D9F91FBD10B510BD00F031F881
:100260001146FFF7F5FF00F061F900F04FF803B415
:10027000FFF7F2FF03BC00F057F800000948804781
:1002800009480047FEE7FEE7FEE7FEE7FEE7FEE778
:10029000FEE7FEE7FEE7FEE704480549054A064B90
:1002A0007047000039030008F901000870000220BF
:1002B0007006022070020220700202207047704710
:1002C0007047754600F02CF8AE4605006946534667
:1002D00020F00700854618B020B5FFF7DDFFBDE828
:1002E00020404FF000064FF000074FF000084FF09D
:1002F000000BAC46ACE8C009ACE8C009ACE8C009EA
:10030000ACE8C00921F007018D46704710B50446DE
:10031000AFF300802046BDE81040FFF7A8BF000003
:10032000004870470000022001491820ABBEFEE7DC
:1003300026000200704700000248016841F4700185
:100340000160704788ED00E00548016821F0010177
:100350000160AA48016881F001010160704700BF97
:10036000100C004010B5684C206880060BD5A068C2
:10037000C0B2422804D04128F6D100F0A1F8F3E73A
:1003800000F082F8F0E710BD10B51848184A1B4C71
:10039000D0F80018C0F8001816498B5843F00063D5
:1003A0008B50154A136843F4AA131360D0F8003435
:1003B0002343C0F80034D2F80034C2F80034104AA5
:1003C000136843F0205313600A6842F420220A6045
:1003D0004A6A42F077024A62016842F2222241F000
:1003E000AA010160016A1143016210BD00000240D0
:1003F0000CFCFFFF000C0240001002400040001007
:100400000C14024011480F2146F26002816244F64A
:100410001F61C162C16841F00101C160416941F0E1
:1004200001014161816911438161C1691143C16168
:1004300041F21112016A11430162016841F00101A8
:10044000016010484FF4802101607047000C0040AB
:1004500080B540F2DC5000F045F85020BDE8804007
:1004600000F04AB8064840F28362C1681143C16097
:10047000016841F02D010160024880210160704750
:100480000048004004E100E05C484FF6FF7201685C
:1004900091430160D0F8001C41F4C061C0F8001C19
:1004A000016841F480410160704700BF411E51481E
:1004B0004160002181600168C903FCD5704700BF1D
:1004C0004E484FF6FF72016891430160D0F8001C5E
:1004D00041F4C071C0F8001C016841F08001016066
:1004E000704700BF10B504462CB14FF47A50FFF7A7
:1004F000DDFF013CF8E710BD0349C860086800064D
:10050000FCD50020704700BF1C4800403B484FF618
:10051000FF72D0F8001C9143C0F8001C01686FF313
:100520000F01016042F21070FFF7DCBF2F48304A24
:10053000016841F0FF010160016911430161FFF7AA
:1005400023FF2C486FF07F41416005210160FFF7D8
:1005500089FFFFF757FF284C284D294E4FF47A7931
:1005600040F2DC5A4FF4FA6B264F4FF6FF78FFF754
:100570006FFF41F288302060C4F80490C4F808A0EE
:10058000C4F80CB0306800F400503860306800F4F3
:1005900080407860D5F8FC0300F40050B86028680B
:1005A00020EA08002860D5F8000C6FF30F00C5F8AA
:1005B000000CB868B0F5005F02D1FFF7A7FFD6E7DF
:1005C000D7E90001B1F5804F06D1B0F5005F03D047
:1005D000FFF776FFD7E90001B1F5804FC7D0B0F53E
:1005E000005FC4D1FFF750FFC1E700BF30380240C1
:1005F0000800040010E000E0340C00401404024045
:100600001014024060000220F1EE100A4FF6FF7154
:10061000C0F2C03120EA010040F04070E1EE100A63
:100620007047000034060008000002207006000039
:040630003402000888
:040000050800027D70
:00000001FF
