:020000040800F2
:10000000700602207D0200088502000887020008B1
:10001000890200088B0200088D0200080000000021
:100020000000000000000000000000008F02000837
:1000300091020008000000009302000895020008E9
:10004000970200089702000897020008970200082C
:10005000970200089702000897020008970200081C
:10006000970200089702000897020008970200080C
:1000700097020008970200089702000897020008FC
:1000800097020008970200089702000897020008EC
:1000900097020008970200089702000897020008DC
:1000A00097020008970200089702000897020008CC
:1000B00097020008970200089702000897020008BC
:1000C00097020008970200089702000897020008AC
:1000D00097020008970200089702000849030008E9
:1000E000970200089702000897020008970200088C
:1000F000970200089702000897020008970200087C
:10010000970200089702000897020008970200086B
:10011000970200089702000897020008970200085B
:10012000970200089702000897020008970200084B
:10013000970200089702000897020008970200083B
:10014000970200089702000897020008970200082B
:10015000970200089702000897020008970200081B
:10016000970200089702000897020008970200080B
:10017000970200089702000897020008000000009C
:1001800097020008970200089702000897020008EB
:1001900097020008970200089702000897020008DB
:1001A00097020008970200089702000897020008CB
:1001B00097020008970200089702000897020008BB
:1001C000970200089702000800000000970200084C
:1001D000970200089702000897020008970200089B
:1001E000970200089702000897020008970200088B
:1001F000970200089702000800F002F800F02EF8BD
:100200000AA090E8000C82448344AAF10107DA4571
:1002100001D100F023F8AFF2090EBAE80F0013F095
:10022000010F18BFFB1A43F00103184768030000D1
:10023000780300000023002400250026103A28BF80
:1002400078C1FBD8520728BF30C148BF0B60704748
:100250001FB500F091F91FBD10B510BD00F031F8C9
:100260001146FFF7F5FF00F019F900F04FF803B45D
:10027000FFF7F2FF03BC00F057F800000948804781
:1002800009480047FEE7FEE7FEE7FEE7FEE7FEE778
:10029000FEE7FEE7FEE7FEE704480549054A064B90
:1002A0007047000039030008F901000870000220BF
:1002B0007006022070020220700202207047704710
:1002C0007047754600F02CF8AE4605006946534667
:1002D00020F00700854618B020B5FFF7DDFFBDE828
:1002E00020404FF000064FF000074FF000084FF09D
:1002F000000BAC46ACE8C009ACE8C009ACE8C009EA
:10030000ACE8C00921F007018D46704710B50446DE
:10031000AFF300802046BDE81040FFF7A8BF000003
:10032000004870470000022001491820ABBEFEE7DC
:1003300026000200704700000248016841F4700185
:100340000160704788ED00E010B54B4C20688006D6
:100350000BD5A068C0B2422804D04128F6D100F0E5
:1003600067F8F3E700F048F8F0E710BD10B513495F
:10037000134A164CD1F80004C1F800041148835800
:1003800043F000638350104A136843F4AA131360C8
:100390000B6823430B60D2F80014C2F800140C4918
:1003A0000A6842F020520A60016841F4202101608D
:1003B000416A41F07701416210BD00BF0004024074
:1003C0000CFCFFFF000C0240001002400040001037
:1003D0000C140240064840F28362C1681143C160B8
:1003E000016841F02D0101600248802101607047E1
:1003F0000048004004E100E05A484FF6FF720168EF
:1004000091430160D0F8001C41F4C061C0F8001CA9
:10041000016841F480410160704700BF411E5048AF
:100420004160002181600168C903FCD5704700BFAD
:100430004C484FF6FF72016891430160D0F8001CF0
:1004400041F4C071C0F8001C016841F080010160F6
:10045000704700BF10B504462CB14FF47A50FFF737
:10046000DDFF013CF8E710BD0349C86008680006DD
:10047000FCD50020704700BF1C48004039484FF6AB
:10048000FF72D0F8001C9143C0F8001C01686FF3A4
:100490000F01016042F21070FFF7DCBF2F480168C6
:1004A00041F0FF010160016941F480210161FFF722
:1004B0005DFF2B486FF07F41416005210160FFF730
:1004C00089FF2948274C294E294F2A4D4FF6FF789E
:1004D000814640F2DC50B0474320B84740F2DC5040
:1004E000B0475420B84740F2DC50B0475020B847DE
:1004F000D9F80000494600F400502860D9F80000FF
:1005000000F480406860D4F8FC0300F40050A86058
:10051000206820EA08002060D4F8000C6FF30F0078
:10052000C4F8000CA868B0F5005F02D1FFF7A6FF81
:10053000CFE7D5E90001B1F5804F06D1B0F5005FF6
:1005400003D0FFF775FFD5E90001B1F5804FC0D0AA
:10055000B0F5005FBDD1FFF74FFFBAE7303802407A
:1005600010E000E01404024010140240550400089A
:100570006904000860000220F1EE100A4FF6FF71D6
:10058000C0F2C03120EA010040F04070E1EE100AF4
:1005900070470000A405000800000220700600005B
:0405A0003402000819
:040000050800027D70
:00000001FF
